{
  "contractName": "SupplyChain",
  "abi": [
    {
      "inputs": [],
      "stateMutability": "nonpayable",
      "type": "constructor"
    },
    {
      "inputs": [
        {
          "internalType": "uint256",
          "name": "",
          "type": "uint256"
        }
      ],
      "name": "supplyRecords",
      "outputs": [
        {
          "internalType": "string",
          "name": "manufacturer",
          "type": "string"
        },
        {
          "internalType": "string",
          "name": "supplier",
          "type": "string"
        },
        {
          "internalType": "string",
          "name": "buyer",
          "type": "string"
        },
        {
          "internalType": "string",
          "name": "location",
          "type": "string"
        },
        {
          "internalType": "string",
          "name": "product",
          "type": "string"
        },
        {
          "internalType": "uint256",
          "name": "date",
          "type": "uint256"
        },
        {
          "internalType": "uint256",
          "name": "price",
          "type": "uint256"
        }
      ],
      "stateMutability": "view",
      "type": "function"
    },
    {
      "inputs": [
        {
          "internalType": "string",
          "name": "_manufacturer",
          "type": "string"
        },
        {
          "internalType": "string",
          "name": "_supplier",
          "type": "string"
        },
        {
          "internalType": "string",
          "name": "_buyer",
          "type": "string"
        },
        {
          "internalType": "string",
          "name": "_location",
          "type": "string"
        },
        {
          "internalType": "string",
          "name": "_product",
          "type": "string"
        },
        {
          "internalType": "uint256",
          "name": "_price",
          "type": "uint256"
        }
      ],
      "name": "addNewrecord",
      "outputs": [],
      "stateMutability": "nonpayable",
      "type": "function"
    },
    {
      "inputs": [
        {
          "internalType": "uint256",
          "name": "_id",
          "type": "uint256"
        }
      ],
      "name": "retrieveItem",
      "outputs": [
        {
          "components": [
            {
              "internalType": "string",
              "name": "manufacturer",
              "type": "string"
            },
            {
              "internalType": "string",
              "name": "supplier",
              "type": "string"
            },
            {
              "internalType": "string",
              "name": "buyer",
              "type": "string"
            },
            {
              "internalType": "string",
              "name": "location",
              "type": "string"
            },
            {
              "internalType": "string",
              "name": "product",
              "type": "string"
            },
            {
              "internalType": "uint256",
              "name": "date",
              "type": "uint256"
            },
            {
              "internalType": "uint256",
              "name": "price",
              "type": "uint256"
            }
          ],
          "internalType": "struct SupplyChain.store",
          "name": "",
          "type": "tuple"
        }
      ],
      "stateMutability": "view",
      "type": "function"
    }
  ],
  "bytecode": "0x6080604052600060015534801561001557600080fd5b50336000806101000a81548173ffffffffffffffffffffffffffffffffffffffff021916908373ffffffffffffffffffffffffffffffffffffffff1602179055506111a5806100656000396000f3fe608060405234801561001057600080fd5b50600436106100415760003560e01c806386deb6f0146100465780639091e27114610062578063f2dec01314610092575b600080fd5b610060600480360381019061005b9190610a15565b6100c8565b005b61007c60048036038101906100779190610b2e565b610243565b6040516100899190610ca1565b60405180910390f35b6100ac60048036038101906100a79190610b2e565b61055e565b6040516100bf9796959493929190610d1c565b60405180910390f35b60008054906101000a900473ffffffffffffffffffffffffffffffffffffffff1673ffffffffffffffffffffffffffffffffffffffff163373ffffffffffffffffffffffffffffffffffffffff1614610156576040517f08c379a000000000000000000000000000000000000000000000000000000000815260040161014d90610dfa565b60405180910390fd5b6040518060e001604052808781526020018681526020018581526020018481526020018381526020014281526020018281525060026000600154815260200190815260200160002060008201518160000190816101b39190611026565b5060208201518160010190816101c99190611026565b5060408201518160020190816101df9190611026565b5060608201518160030190816101f59190611026565b50608082015181600401908161020b9190611026565b5060a0820151816005015560c082015181600601559050506001600081548092919061023690611127565b9190505550505050505050565b61024b610848565b600260008381526020019081526020016000206040518060e001604052908160008201805461027990610e49565b80601f01602080910402602001604051908101604052809291908181526020018280546102a590610e49565b80156102f25780601f106102c7576101008083540402835291602001916102f2565b820191906000526020600020905b8154815290600101906020018083116102d557829003601f168201915b5050505050815260200160018201805461030b90610e49565b80601f016020809104026020016040519081016040528092919081815260200182805461033790610e49565b80156103845780601f1061035957610100808354040283529160200191610384565b820191906000526020600020905b81548152906001019060200180831161036757829003601f168201915b5050505050815260200160028201805461039d90610e49565b80601f01602080910402602001604051908101604052809291908181526020018280546103c990610e49565b80156104165780601f106103eb57610100808354040283529160200191610416565b820191906000526020600020905b8154815290600101906020018083116103f957829003601f168201915b5050505050815260200160038201805461042f90610e49565b80601f016020809104026020016040519081016040528092919081815260200182805461045b90610e49565b80156104a85780601f1061047d576101008083540402835291602001916104a8565b820191906000526020600020905b81548152906001019060200180831161048b57829003601f168201915b505050505081526020016004820180546104c190610e49565b80601f01602080910402602001604051908101604052809291908181526020018280546104ed90610e49565b801561053a5780601f1061050f5761010080835404028352916020019161053a565b820191906000526020600020905b81548152906001019060200180831161051d57829003601f168201915b50505050508152602001600582015481526020016006820154815250509050919050565b600260205280600052604060002060009150905080600001805461058190610e49565b80601f01602080910402602001604051908101604052809291908181526020018280546105ad90610e49565b80156105fa5780601f106105cf576101008083540402835291602001916105fa565b820191906000526020600020905b8154815290600101906020018083116105dd57829003601f168201915b50505050509080600101805461060f90610e49565b80601f016020809104026020016040519081016040528092919081815260200182805461063b90610e49565b80156106885780601f1061065d57610100808354040283529160200191610688565b820191906000526020600020905b81548152906001019060200180831161066b57829003601f168201915b50505050509080600201805461069d90610e49565b80601f01602080910402602001604051908101604052809291908181526020018280546106c990610e49565b80156107165780601f106106eb57610100808354040283529160200191610716565b820191906000526020600020905b8154815290600101906020018083116106f957829003601f168201915b50505050509080600301805461072b90610e49565b80601f016020809104026020016040519081016040528092919081815260200182805461075790610e49565b80156107a45780601f10610779576101008083540402835291602001916107a4565b820191906000526020600020905b81548152906001019060200180831161078757829003601f168201915b5050505050908060040180546107b990610e49565b80601f01602080910402602001604051908101604052809291908181526020018280546107e590610e49565b80156108325780601f1061080757610100808354040283529160200191610832565b820191906000526020600020905b81548152906001019060200180831161081557829003601f168201915b5050505050908060050154908060060154905087565b6040518060e00160405280606081526020016060815260200160608152602001606081526020016060815260200160008152602001600081525090565b6000604051905090565b600080fd5b600080fd5b600080fd5b600080fd5b6000601f19601f8301169050919050565b7f4e487b7100000000000000000000000000000000000000000000000000000000600052604160045260246000fd5b6108ec826108a3565b810181811067ffffffffffffffff8211171561090b5761090a6108b4565b5b80604052505050565b600061091e610885565b905061092a82826108e3565b919050565b600067ffffffffffffffff82111561094a576109496108b4565b5b610953826108a3565b9050602081019050919050565b82818337600083830152505050565b600061098261097d8461092f565b610914565b90508281526020810184848401111561099e5761099d61089e565b5b6109a9848285610960565b509392505050565b600082601f8301126109c6576109c5610899565b5b81356109d684826020860161096f565b91505092915050565b6000819050919050565b6109f2816109df565b81146109fd57600080fd5b50565b600081359050610a0f816109e9565b92915050565b60008060008060008060c08789031215610a3257610a3161088f565b5b600087013567ffffffffffffffff811115610a5057610a4f610894565b5b610a5c89828a016109b1565b965050602087013567ffffffffffffffff811115610a7d57610a7c610894565b5b610a8989828a016109b1565b955050604087013567ffffffffffffffff811115610aaa57610aa9610894565b5b610ab689828a016109b1565b945050606087013567ffffffffffffffff811115610ad757610ad6610894565b5b610ae389828a016109b1565b935050608087013567ffffffffffffffff811115610b0457610b03610894565b5b610b1089828a016109b1565b92505060a0610b2189828a01610a00565b9150509295509295509295565b600060208284031215610b4457610b4361088f565b5b6000610b5284828501610a00565b91505092915050565b600081519050919050565b600082825260208201905092915050565b60005b83811015610b95578082015181840152602081019050610b7a565b60008484015250505050565b6000610bac82610b5b565b610bb68185610b66565b9350610bc6818560208601610b77565b610bcf816108a3565b840191505092915050565b610be3816109df565b82525050565b600060e0830160008301518482036000860152610c068282610ba1565b91505060208301518482036020860152610c208282610ba1565b91505060408301518482036040860152610c3a8282610ba1565b91505060608301518482036060860152610c548282610ba1565b91505060808301518482036080860152610c6e8282610ba1565b91505060a0830151610c8360a0860182610bda565b5060c0830151610c9660c0860182610bda565b508091505092915050565b60006020820190508181036000830152610cbb8184610be9565b905092915050565b600082825260208201905092915050565b6000610cdf82610b5b565b610ce98185610cc3565b9350610cf9818560208601610b77565b610d02816108a3565b840191505092915050565b610d16816109df565b82525050565b600060e0820190508181036000830152610d36818a610cd4565b90508181036020830152610d4a8189610cd4565b90508181036040830152610d5e8188610cd4565b90508181036060830152610d728187610cd4565b90508181036080830152610d868186610cd4565b9050610d9560a0830185610d0d565b610da260c0830184610d0d565b98975050505050505050565b7f6163636573732064656e69656400000000000000000000000000000000000000600082015250565b6000610de4600d83610cc3565b9150610def82610dae565b602082019050919050565b60006020820190508181036000830152610e1381610dd7565b9050919050565b7f4e487b7100000000000000000000000000000000000000000000000000000000600052602260045260246000fd5b60006002820490506001821680610e6157607f821691505b602082108103610e7457610e73610e1a565b5b50919050565b60008190508160005260206000209050919050565b60006020601f8301049050919050565b600082821b905092915050565b600060088302610edc7fffffffffffffffffffffffffffffffffffffffffffffffffffffffffffffffff82610e9f565b610ee68683610e9f565b95508019841693508086168417925050509392505050565b6000819050919050565b6000610f23610f1e610f19846109df565b610efe565b6109df565b9050919050565b6000819050919050565b610f3d83610f08565b610f51610f4982610f2a565b848454610eac565b825550505050565b600090565b610f66610f59565b610f71818484610f34565b505050565b5b81811015610f9557610f8a600082610f5e565b600181019050610f77565b5050565b601f821115610fda57610fab81610e7a565b610fb484610e8f565b81016020851015610fc3578190505b610fd7610fcf85610e8f565b830182610f76565b50505b505050565b600082821c905092915050565b6000610ffd60001984600802610fdf565b1980831691505092915050565b60006110168383610fec565b9150826002028217905092915050565b61102f82610b5b565b67ffffffffffffffff811115611048576110476108b4565b5b6110528254610e49565b61105d828285610f99565b600060209050601f831160018114611090576000841561107e578287015190505b611088858261100a565b8655506110f0565b601f19841661109e86610e7a565b60005b828110156110c6578489015182556001820191506020850194506020810190506110a1565b868310156110e357848901516110df601f891682610fec565b8355505b6001600288020188555050505b505050505050565b7f4e487b7100000000000000000000000000000000000000000000000000000000600052601160045260246000fd5b6000611132826109df565b91507fffffffffffffffffffffffffffffffffffffffffffffffffffffffffffffffff8203611164576111636110f8565b5b60018201905091905056fea2646970667358221220dd20d86c61f295d7a02515da8b87014734975a53f50e6497084f0a042e6475e264736f6c63430008110033",
  "immutableReferences": {},
  "source": "// SPDX-License-Identifier: MIT\n\npragma solidity ^0.8.0;\n\ncontract SupplyChain {\n    // 1. -> Get address of the person that deploys the initial contract\n    address owner;\n\n    // -> Executes immediately the contract is deployed\n    constructor() {\n        owner = msg.sender;\n    }\n\n    // -> Struct is used to define variables to hold probable values\n    struct store {\n        string manufacturer;\n        string supplier;\n        string buyer;\n        string location;\n        string product;\n        uint256 date;\n        uint256 price;\n    }\n\n    uint256 private productID = 0;\n\n    // initialized store as an object\n    mapping(uint256 => store) public supplyRecords;\n\n    modifier verifyOwner() {\n        require(msg.sender == owner, \"access denied\"); // to handle error if a certain condition is not met\n        _; // allows the modifier to run first\n    }\n\n    function addNewrecord(\n        string memory _manufacturer,\n        string memory _supplier,\n        string memory _buyer,\n        string memory _location,\n        string memory _product,\n        uint256 _price\n    ) public verifyOwner {\n        supplyRecords[productID] = store(\n            _manufacturer,\n            _supplier,\n            _buyer,\n            _location,\n            _product,\n            block.timestamp,\n            _price\n        );\n\n        productID++;\n    }\n\n    // Retrieve item based on ID\n    function retrieveItem(uint256 _id) public view returns (store memory) {\n        return supplyRecords[_id];\n    }\n}\n",
  "sourcePath": "/home/brixxxght/Documents/supply_chain/contracts/SupplyChain.sol",
  "compiler": {
    "name": "solc",
    "version": "0.8.17+commit.8df45f5f.Emscripten.clang"
  },
  "schemaVersion": "3.4.10",
  "updatedAt": "2022-09-19T14:56:09.658Z",
  "devdoc": {
    "kind": "dev",
    "methods": {},
    "version": 1
  },
  "userdoc": {
    "kind": "user",
    "methods": {},
    "version": 1
  }
}